:020000040800F2
:10000000C0080020CD010008F71D00081D1C0008D5
:10001000F51D00081703000869250008000000000E
:10002000000000000000000000000000FB1D0008B0
:100030005B03000800000000F91D0008FD1D00081A
:10004000E7010008E7010008E7010008E7010008F0
:10005000E7010008E7010008E7010008E7010008E0
:10006000E7010008E7010008E7010008E7010008D0
:10007000E7010008E701000819030008250300084C
:10008000E7010008E7010008E7010008E7010008B0
:10009000E7010008E7010008E7010008E7010008A0
:1000A000E7010008E7010008E7010008E701000890
:1000B000E7010008611E0008E7010008E7010008E9
:1000C000E7010008E7010008E7010008E701000870
:1000D000E7010008C5240008E7010008E70100085F
:1000E000E7010008E7010008E7010008E701000850
:1000F000E7010008E7010008E7010008E701000840
:10010000E7010008E7010008E7010008E70100082F
:10011000E7010008E7010008E7010008E70100081F
:10012000E7010008E7010008E7010008E70100080F
:1001300000F002F800F03AF80AA090E8000C8244BF
:100140008344AAF10107DA4501D100F02FF8AFF29C
:10015000090EBAE80F0013F0010F18BFFB1A43F0A5
:1001600001031847BC240000DC240000103A24BF1F
:1001700078C878C1FAD8520724BF30C830C144BF0C
:1001800004680C607047000000230024002500264E
:10019000103A28BF78C1FBD8520728BF30C148BFEA
:1001A0000B6070471FB51FBD10B510BD00F07AF889
:1001B0001146FFF7F7FF02F0E9F900F098F803B4F1
:1001C000FFF7F2FF03BC00F09FF8000009488047EA
:1001D00009480047FEE7FEE7FEE7FEE7FEE7FEE729
:1001E000FEE7FEE7FEE7FEE704480549054A064B41
:1001F000704700005F1E000831010008C0020020A7
:10020000C0080020C0040020C00400204FF00002FD
:100210000429C0F0128010F0030C00F01B80CCF118
:10022000040CBCF1020F18BF00F8012BA8BF20F886
:10023000022BA1EB0C0100F00DB85FEAC17C24BFDA
:1002400000F8012B00F8012B48BF00F8012B704784
:100250004FF0000200B5134694469646203922BF5F
:10026000A0E80C50A0E80C50B1F12001BFF4F7AFAA
:10027000090728BFA0E80C5048BF0CC05DF804EB8C
:10028000890028BF40F8042B08BF704748BF20F8FA
:10029000022B11F0804F18BF00F8012B70477047F8
:1002A00070477047754600F02BF8AE46050069466A
:1002B000534620F00700854618B020B5FFF794FF9D
:1002C000BDE820404FF000064FF000074FF0000857
:1002D0004FF0000B21F00701AC46ACE8C009ACE8D8
:1002E000C009ACE8C009ACE8C0098D46704710B53C
:1002F0000446AFF300802046BDE81040FFF75FBF23
:10030000004870476002002001491820ABBEFEE79C
:10031000260002007047FEE7014800F0DDB800004B
:100320001C020020014800F0D7B80000D8010020CE
:1003300030B590F840500124AC40C56B6C60046847
:1003400063604368102B036803D099600068C26043
:1003500030BD9A600068C16030BD704772B6FEE77C
:1003600010B590F821100022022905D004218163E4
:1003700080F82020012010BD01680B6823F00E03D7
:100380000B6001680B6823F001030B6090F84030AC
:10039000C46B012101FA03F3636080F8211080F837
:1003A0002020104610BD00002DE9F05F90F82110CC
:1003B0000024022903D004218163012485E001681F
:1003C0000A6822F00E020A6001680A6822F001023F
:1003D0000A603F4E3E4FB215DFF8F4C0DFF8F090F0
:1003E000DFF8ECA0DFF8E8B0DFF8E4E00168783F80
:1003F00013011502ACF1640CA9F15009AAF13C0AF1
:10040000ABF1280BAEF1140E4FF48018B14227D98E
:10041000B9420ED0614512D049451DD0514518D082
:10042000594518D0714501D1424615E0294EB142D7
:1004300001D1012210E0274E1436B14201D1102221
:100440000AE0244E2836B14206D0224A3C3291427C
:1004500001D11A4600E02A461E49091F0A602BE016
:10046000B94213D0614517D0494522D051451DD01E
:1004700059451DD0714501D142461AE0B14202D121
:100480004FF0807215E0134EB14201D1012210E00D
:10049000104E1436B14201D110220AE00D4E28361A
:1004A000B14206D00B4A3C32914201D11A4600E0DB
:1004B0002A46074980394A60012180F8211000212D
:1004C00080F82010416B01B188472046BDE8F09FBD
:1004D00080000240080402402DE9F05FC16B0A6809
:1004E00001680B68046C4FF0040808FA04F8844DA6
:1004F000844E854FDFF814C2DFF81492DFF814A29F
:10050000DFF814B2DFF814E218EA020F65D05FEAF0
:10051000437862D50A68920603D40A6822F004027E
:100520000A60DFF8F0814FF48062016808F1140876
:1005300013011402414524D9A9420DD0B1420FD074
:10054000B9421AD0614515D0494515D0514501D160
:10055000120312E0594501D104220EE0714501D188
:1005600040220AE06D4D1435A94206D06B4A28326C
:10057000914201D11A4600E022466749091F0A60EC
:1005800029E0A94213D0B14215D0B94220D061452B
:100590001BD049451BD0514502D14FF4800217E0D2
:1005A000414502D14FF0806212E0594501D1042249
:1005B0000EE0714501D140220AE0584D1435A942A0
:1005C00006D0564A2832914201D11A4600E022460E
:1005D0004B4908394A60C16A71E04FF0020808FAD5
:1005E00004F818EA020F70D05FEA83786DD50A68C4
:1005F000920606D40A6822F00A020A60012180F8F5
:100600002110DFF810814FF40072016808F114081E
:1006100013011402414524D9A9420DD0B1420FD093
:10062000B9421AD0614515D0494515D0514501D17F
:10063000120312E0594501D102220EE0714501D1A9
:1006400020220AE0354D1435A94206D0334A28321B
:10065000914201D11A4600E022462F49091F0A6043
:1006600029E0A94213D0B14215D0B94220D061454A
:100670001BD049451BD0514502D14FF4001217E061
:10068000414502D14FF0007212E0594501D10222DA
:100690000EE0714501D120220AE0204D1435A94217
:1006A00006D01E4A2832914201D11A4600E0224665
:1006B000134908394A60002180F82010816A002916
:1006C0001CD0BDE8F05F0847FFE70825A5401542AC
:1006D00014D01A0712D50A6822F00E020A6090F8A8
:1006E0004020C36B012101FA02F25A60816380F855
:1006F0002110002180F82010016BE0E7BDE8F09F99
:10070000080002401C000240300002404400024049
:10071000580002406C000240080402401C040240E1
:1007200030B560B11A4B026814219A4209D2194BB4
:100730001344B3FBF1F18900016417490AE0012079
:1007400030BD134B5B421344B3FBF1F189000164EC
:100750000F490839C163022180F82110136843F65C
:10076000F0718B43F0E901142143D0E902452C4399
:100770002143046921434469214384692143194386
:10078000116000214163012242770177084630BDA4
:1007900008040240F8FFFDBF0000024070B50446A7
:1007A00090F82000002501280CD0012084F82000BA
:1007B00094F821600020012E06D084F82000022544
:1007C000284670BD022070BD022684F82160A06317
:1007D0002068066826F0010606602046FFF7A8FD9F
:1007E000E06A00282068016802D041F00E0106E0AE
:1007F00021F0040101602068016841F00A010160F4
:100800002068016841F001010160D9E770B5044634
:1008100000F018F90546601C02D004480078044432
:1008200000F010F9401BA042FAD370BD3C0000203C
:100830002DE9F84FDFF8C891002409F1040A0AF104
:10084000040B23460F270BF1040ED1E00125A54030
:1008500006EA0502AA4276D1DFF8A8C14E68A6EBE7
:100860000C0866452BD00DDC032E34D005DC36B3E6
:10087000012E19D0022E2FD11BE0112E16D0122ED0
:100880002AD119E0B8F5881F19D006DCB8F5803FE9
:1008900015D0B8F5801F1FD111E0B8F5001F0ED09C
:1008A000B8F5041F18D10AE0CB6815E0CB681B1D12
:1008B00012E0CB6808330FE0CB680C330CE08B6898
:1008C0002BB1012B4FF0080303D0456104E0042352
:1008D00002E0056100E00023FF2A01D8064601E09E
:1008E00000F104064FEA840501D9A5F12005D6F8E8
:1008F000008007FA05FC28EA0C0803FA05F548EA27
:100900000508C6F800804D68ED0070D53E4DAE6913
:1009100046F00106AE61AD6924F0030605F001055D
:1009200000953A4D06EB050CDCF80850A607360F8B
:1009300007FA06F825EA0805DFF8D480404503D118
:100940004FF0000825E052E0DFF8C880404502D1B2
:100950004FF001081DE0DFF8C080404502D14FF0A4
:10096000020816E0DFF8B480404502D14FF00308DA
:100970000FE0DFF8AC80404502D14FF0040808E0FA
:10098000DFF8A080404502D14FF0050801E04FF0AC
:10099000060808FA06F848EA0508CCF808804D6809
:1009A000D9F80060ED034D4601D5164300E09643AB
:1009B0002E604D68DAF80060AD03554601D5164348
:1009C00000E096432E604D68DBF80060ED025D4666
:1009D00001D5164300E096432E604D68DEF80060B6
:1009E000AD02754601D5164300E096432E60641CA7
:1009F0000A681646E2407FF429AFBDE8F88F000090
:100A000000040140000011100010024000000140ED
:100A100000080140000C014000100140001401409A
:100A200000180140001C0140C26821EA02030A408C
:100A300043EA0241016170470AB10161704709044C
:100A4000FBE7000001488068704700003C00002080
:100A50000248816802781144816070473C000020A0
:100A6000074810B5016841F010010160032000F053
:100A70006DF80F2000F006F800F024F8002010BDFB
:100A80000020024070B50D4D04464FF47A7128786D
:100A9000B1FBF0F00A490968B1FBF0F000F0E4FAAC
:100AA00048B9102C07D200222146501E00F02EF823
:100AB00000206C6070BD012070BD00003C00002073
:100AC00048000020094808B5816941F001018161B1
:100AD000816901F001010091C16941F08051C1615A
:100AE000C06900F08050009008BD00000010024076
:100AF000002809DB00F01F0201219140400980001D
:100B000000F1E020C0F8001170470000F0B40E4B77
:100B10001B680C46C3F30223C3F10705042D00D95B
:100B20000425191D072901D2002300E0DB1E012640
:100B300006FA05F1491E214099409E40761E164056
:100B40003143F0BC01F011BD0CED00E0064900F0AE
:100B5000070208684FF6FF03184040EA0220034AE4
:100B600010430860704700000CED00E00000FA053B
:100B70002DE9F0470F46050061D0434E306800F084
:100B80000700B84209D2306820F0070038433060CF
:100B9000306800F00700B84251D128683B4C81070B
:100BA00012D5400703D5606840F4E06060602878A3
:100BB000000703D5606840F4605060606068A96811
:100BC00020F0F000084360602878C00728D06868EB
:100BD000012810D02168022810D0890700292EDAB8
:100BE000616821F0030101436160FFF72BFF80463C
:100BF00041F288390DE021688903EFE78901EDE7CB
:100C0000FFF720FFA0EB0801494502D90320BDE80A
:100C1000F0876068696800F00C00B0EB810FEFD1DD
:100C2000306800F00700B8420BD9306820F00700A8
:100C300038433060306800F00700B84201D001202E
:100C4000E5E72878400705D56068E96820F4E060AA
:100C5000084360602878000706D56068296920F499
:100C6000605040EAC100606000F038F86168084AEE
:100C7000C1F30311515CC84006490860064800688A
:100C8000FFF700FF0020C2E70020024000100240F2
:100C900008260008480000204000002004480549BC
:100CA00000684968044AC1F30221515CC84070479A
:100CB000480000200010024018260008044805499A
:100CC00000684968044AC1F3C221515CC8407047BA
:100CD00048000020001002401826000812A185B02C
:100CE0000FC98DE80F0014A0144A006804905168E1
:100CF000134801F00C03042B10D0082B0ED1C1F3C4
:100D00008343C9031DF803000AD5516804AAC1F33F
:100D10004041515C0A4A5043B0FBF1F005B07047C6
:100D200008494843FAE700000203040506070809DA
:100D30000A0B0C0D0E0F10100102000000100240F3
:100D400000127A0000093D002DE9F84F040070D030
:100D50002078C04DC00749D06868C0F381000128E1
:100D600007D06868C0F38100022809D16868C00311
:100D700006D52868800339D560680028E7D035E0BB
:100D80006068B0F5803F0BD010B1B0F5A02F11D046
:100D9000286820F480302860286820F4802002E051
:100DA000286840F480302860606890B1FFF74AFE00
:100DB00006460AE0286840F480202860F0E700BF7B
:100DC000FFF740FE801B642873D828688003F7D59E
:100DD0000CE0FFF737FE064605E000BFFFF732FEE6
:100DE000801B6428F0D828688003F7D420789A4EB6
:100DF00080074FF001094FF0000839D5686810F0FE
:100E00000C0F07D06868C0F38100022809D1686818
:100E1000C00306D42868800714D52069012808D1AA
:100E200010E02069B0B1C6F80090FFF70BFE07464E
:100E300005E00AE1FFF706FEC01B0228C4D82868B7
:100E40008007F7D52868616920F0F80040EAC10002
:100E500028600DE0C6F80080FFF7F4FD074604E0C7
:100E6000FFF7F0FDC01B022823D828688007F7D4BD
:100E7000207800072CD57948A169D9B1C0F8009035
:100E8000FFF7E0FD074604E0FFF7DCFDC01B02288A
:100E90000FD8686A8007F7D571484FF4FA51006897
:100EA000B0FBF1F0009000BF0098411E0091FAD213
:100EB0000EE080E0C0F80080FFF7C4FD074604E0C4
:100EC000FFF7C0FDC01B022875D8686A8007F7D4F9
:100ED0002078400760D5E8690027C00008D4E86999
:100EE00040F08050E861E869012700F080500090F0
:100EF0005C480168C90513D40168834641F48071D8
:100F00000160FFF79FFD824606E000BFFFF79AFDF4
:100F1000A0EB0A0064284ED8DBF80000C005F5D528
:100F2000E06801280AD008B1052813D0286A20F00B
:100F300001002862286A20F0040002E0286A40F0DC
:100F400001002862E06841F2883B98B1FFF77AFD22
:100F500082460BE0286A40F004002862EEE700BFFA
:100F6000FFF770FDA0EB0A0159455AD8286A80079F
:100F7000F6D50CE0FFF766FD824605E0FFF762FD5F
:100F8000A0EB0A0159454CD8286A8007F6D41FB156
:100F9000E86920F08050E861E06988B36968C1F3CE
:100FA0008101022944D00228C6F8608004D0FFF7EE
:100FB00049FD044638E034E0FFF744FD074604E00D
:100FC000FFF740FDC01B02282BD828688001F7D40A
:100FD000206AB0F5803F05D16868A16820F4003030
:100FE00008436860D4E908010843696821F4741172
:100FF00008436860C6F86090FFF724FD044606E0E9
:1010000025E000BFFFF71EFD001B022809D8286855
:101010008001F7D51BE000BFFFF714FD001B02287D
:1010200002D90320BDE8F88F28688001F4D40EE0CF
:101030000128F7D06868226A00F48031914204D117
:10104000616A00F47010884201D00120EAE70020B4
:10105000E8E70000001002400000424280044242E3
:10106000480000200070004010B5401EB0F1807FA5
:1010700001D3012010BD4FF0E02460610F21601703
:1010800001F073FA0020A06107202061002010BD4C
:101090007047704770B590F83C20012A2CD001248D
:1010A00080F83C40022280F83D2003685A689D6821
:1010B00022F070060A6832435A60104B02689A4266
:1010C0000ED00F4B9A420BD0B2F1804F08D00D4B8F
:1010D0009A4205D00C4B9A4202D00C4B9A4204D152
:1010E000496825F080031943916080F83D40002154
:1010F00080F83C10084670BD022070BD002C0140F5
:10110000003401400004004000080040000C004092
:1011100010B5040003D094F83D0010B107E00120A1
:1011200010BD002084F83C00204600F01FF802208B
:1011300084F83D00211D206800F098FE012084F80D
:10114000460084F83E0084F83F0084F8400084F8AC
:10115000410084F8420084F8430084F8440084F895
:10116000450084F83D00002010BD000008B500686F
:101170000B49884212D10B48C16941F00201C1619B
:10118000C069002200F00200009011461D20FFF708
:10119000BDFCBDE808401D20FFF7AABC08BD00004B
:1011A000000400400010024070B5044690F83C0076
:1011B000012817D0012584F83C50022084F83D0016
:1011C0002068826822F0770222F47F4282600868F9
:1011D000502830D00DDC20284DD005DC98B31028E5
:1011E0003BD148E0022070BD302844D0402834D1A3
:1011F00039E0602828D0702806D0B0F5805F2CD068
:10120000B0F5005F29D10AE0CB68D1E9012120685F
:1012100000F07FFE2068816841F0770109E0CB682B
:10122000D1E90121206800F074FE2068816841F452
:101230008041816011E0CA684968206800F03EFF83
:101240005021206807E016E0CA684968206800F06D
:1012500046FF6021206800F066FE84F83D500020C3
:1012600084F83C0070BDCA684968206800F026FF19
:1012700040212068EFE7226801461046EBE77047FF
:1012800070B50446006801694FF00005C94389073D
:1012900015D4C168C943890711D4E91E0161012031
:1012A0002077206880698007204602D0FFF7E7FF9B
:1012B00004E000F0C9F8204600F058F925772068CE
:1012C0000169C943490717D4C168C943490713D401
:1012D0006FF004010161022020772068806910F41A
:1012E000407F204602D0FFF7CAFF04E000F0ACF8D0
:1012F000204600F03BF9257720680169C9430907BA
:1013000016D4C168C943090712D46FF008010161FE
:10131000042020772068C0698007204602D0FFF7AC
:10132000AEFF04E000F090F8204600F01FF92577AA
:1013300020680169C943C90617D4C168C943C906F1
:1013400013D46FF010010161082020772068C06974
:1013500010F4407F204602D0FFF791FF04E000F038
:1013600073F8204600F002F9257720680169C94327
:10137000C90708D1C168C943C90704D1891E0161E1
:10138000204600F04FF920680169C943090609D4D5
:10139000C168C943090605D46FF080010161204688
:1013A000FFF776FE20680169C943490609D4C16880
:1013B000C943490605D46FF040010161204600F0A1
:1013C0003DF920680169C94389060BD4C168C94346
:1013D000890607D46FF0200101612046BDE8704006
:1013E000FFF757BE70BD000000B585B00021009129
:1013F00001910291039100680F4988421AD10F4868
:10140000816941F0100181618069694600F0100036
:101410000490402000900220019003900848FFF7BC
:1014200007FA0848416821F4406141F0E06141F465
:101430004061416005B000BD000400400010024062
:101440000010014000000140704770B5044690F85C
:101450003C000D4601280AD0012084F83C0042B12E
:10146000042A18D0082A2AD00C2A4DD139E00220AB
:1014700070BD206800F060FD2068816941F00801BE
:1014800081612068816921F004018161206881699E
:101490002A69114311E0206800F07EFD206881690F
:1014A00041F4006181612068816921F4806181617A
:1014B000206881692A6941EA0221816124E020686B
:1014C00000F0A0FD2068C16941F00801C1612068F9
:1014D000C16921F00401C1612068C1692A69114311
:1014E00011E0206800F0C2FD2068C16941F400618C
:1014F000C1612068C16921F48061C1612068C1694E
:101500002A6941EA0221C161002084F83C0070BDD3
:1015100010B5040003D094F83D0010B107E001209D
:1015200010BD002084F83C00204600F01EF8022088
:1015300084F83D00211D206800F098FC012084F80B
:10154000460084F83E0084F83F0084F8400084F8A8
:10155000410084F8420084F8430084F8440084F891
:10156000450084F83D00002010BD70477047000022
:1015700010B50446022249B104290ED0082913D01F
:1015800094F84100012816D0012010BD94F83E00C7
:101590000128F9D184F83E200FE094F83F0001289B
:1015A000F2D184F83F2008E094F840000128EBD104
:1015B00084F8402001E084F841200122206800F0F6
:1015C0009BFC13492068134A884201D0904203D102
:1015D000436C43F400434364206888420DD090423A
:1015E0000BD0B0F1804F08D00B49884205D00B4991
:1015F000884202D00A49884204D1816801F007017B
:10160000062903D0016841F001010160002010BDEE
:10161000002C01400034014000040040000800405C
:10162000000C00400349884203D101210248FFF722
:10163000FBB970474C0100200010014070470000CA
:10164000094910B588420ED1084809490068486028
:1016500004210848FFF7E8F9BDE81040FF220349DC
:10166000014800F028BA10BD940100204C00002071
:10167000000000200010014090F83C1001290BD020
:10168000012180F83C1001684A6990F83D30C2F3AE
:10169000C012212B02D006E0022070471AB14A691D
:1016A00022F080024A6101684A6990F83E30C2F334
:1016B0008012222B0ED16AB1CA6822F48072CA60ED
:1016C00001684A6922F001024A6101684A6922F010
:1016D00040024A61002180F83C100846704708B576
:1016E00090F83C10012907D0012180F83C1090F8B7
:1016F0003D10212902D006E0022008BD01684A6998
:1017000042F080024A6190F83E100022222911D155
:1017100001680B684B680093CB6843F48073CB601F
:1017200001684B6943F001034B6101684B6943F069
:1017300040034B6180F83C20002008BD704700004A
:10174000F8B5026804461068D168536910F00F0FAD
:101750004FF0000553D003F0010601F490773743B2
:101760005FD0C20705D0CA0503D5226C42F0010242
:101770002264420705D5DA0703D0226C42F0020248
:101780002264820705D5DA0703D0226C42F00402F6
:101790002264020707D501F02002324303D0226CF5
:1017A00042F008022264226C002A34D0800604D55C
:1017B000880602D5204600F048FD20684069216C6B
:1017C000C0F38010090700D430B3204600F01CFDA0
:1017D0002068416949061BD5416921F040014161FA
:1017E000A06BA8B158494163A06BFEF7DDFD00284E
:1017F00011D0A06B416B01B0BDE8F04008478306F3
:101800000FD58B060DD52046BDE8F84000F01DBD74
:101810002046FFF793FFF8BD2046FFF78FFF2564B2
:10182000F8BD266B2023012E52D1C60650D5CE0618
:101830004ED5106850680090506940062AD5A16BBB
:10184000086840680004000CEAD0A68D8642E7D9FB
:10185000E0858869202818D0D06820F48070D06096
:101860002068416921F0010141612068416921F04E
:101870004001416184F83E3025632068C16821F051
:101880001001C160A06BFEF76BFDA08DE18D401AC9
:1018900081B219E0A08DE18D401A81B2E08D00285F
:1018A000BED00029BCD0D06820F49070D0602068F1
:1018B000426922F00102426184F83E3025632068CB
:1018C000C26822F01002C2602046FFF7B9FEF8BDE0
:1018D00005062BD50D0629D594F83D002128F6D113
:1018E000A068B0F5805F01D12069B0B1206A411CC9
:1018F0002162216800784860E08C401E0004000CE2
:10190000E084E4D12068C16821F08001C1602068D2
:10191000C16841F04001C160F8BD206A0088C0F391
:1019200008005060206A801C2062E5E74006F3D57D
:101930004806F1D5D168204621F04001D16084F8F5
:101940003D3000F069F9F8BD0321000870B50400CE
:1019500004D094F83D00002510B106E0012070BDD0
:1019600084F83C50204600F023F8242084F83D0001
:101970002068C16821F40051C160204600F0C0FC1D
:101980002068016921F4904101612068416921F0DA
:101990002A0141612068C16841F40051C160256499
:1019A000202084F83D0084F83E00002070BD000037
:1019B000F0B585B000240646009401940294039487
:1019C00000682D49884255D12C48816941F48041F5
:1019D0008161816901F480410491816941F00401D0
:1019E00081618069264D00F0040004904FF400707E
:1019F0000090022001900320039069462846FEF7DC
:101A000017FF2815CDE90004694628460294FEF721
:101A10000FFF1D4D1B488027C5E90004C5E902479B
:101A200020202C61C5E905402846EC61FEF778FED0
:101A300008B1FEF793FCB5636E62134D114844354F
:101A4000143801C5102091C50F4845F8104944309D
:101A50006C61AC61EC61FEF763FE08B1FEF77EFCE1
:101A600075630022114625206E62FFF74FF825208E
:101A7000FFF73EF805B0F0BD00380140001002400D
:101A80000008014058000240D801002090F83E3084
:101A9000202B0ED159B152B190F83C30012B08D017
:101AA000012380F83C300023036300F085BC012053
:101AB00070470220704790F83E30202B0ED159B16C
:101AC00052B190F83C30012B08D0012380F83C3013
:101AD0000023036300F0A8BC012070470220704778
:101AE000704770472DE9F843044690F83D001F46C3
:101AF00016460D4620284CD1C5B1BEB194F83C0025
:101B0000012846D0012084F83C004FF00008C4F8BA
:101B10004080212084F83D00FEF794FFA684814692
:101B2000E684A068B0F5805F03D004E00120BDE842
:101B3000F883206928B12E465FF0000584F83C80C8
:101B40000EE00026FAE78021204600F088FCA0B9CC
:101B5000AEB116F8010B21684860E08C401EE084AD
:101B6000E08C4B464FF0000200970028EBD14FF07D
:101B70004001204600F073FC30B10320D7E735F870
:101B8000020BC0F30800E6E7202084F83D000020A7
:101B9000CDE70220CBE7000070B5044690F83D0089
:101BA000202830D169B362B394F83C0001282AD0D0
:101BB000012084F83C002162A284E284002525648F
:101BC000212084F83D00636B10489862636B1048D5
:101BD000D862636B0F481863606B134645632668D1
:101BE000606B321DFEF7DAFD21686FF0400008607F
:101BF00084F83C502068416941F080014161002037
:101C000070BD012070BD022070BD0000D121000810
:101C1000FF2100081321000870477047FEE700000D
:101C20000D4808B5416941F0010141614069002258
:101C300000F00100009011460E20FEF767FF0E2015
:101C4000FEF756FF002211460F20FEF75FFFBDE8AA
:101C500008400F20FEF74CBF001002402DE9F04174
:101C600086B000242848009401940294039481696A
:101C700041F040018161816901F040010491816975
:101C800041F010018161816901F0100104918169C5
:101C900041F004018161816901F0040104918169CD
:101CA00041F0080181618069184E00F0080004903D
:101CB00001223F213046FEF7BFFEDFF85480B51504
:101CC000002229464046FEF7B7FE1820CDE9000461
:101CD000012469460F480294FEF7AAFD3F20CDE992
:101CE00000040327CDE9024769463046FEF7A0FD10
:101CF000CDE90054CDE9024769464046FEF798FD1C
:101D000006B0BDE8F0810000001002400010014064
:101D1000000C01400018014010B58EB0002407945B
:101D2000089409940A940B941C2168460C94FEF7BD
:101D30008FFA1F481D4901604721C0E9011440F294
:101D4000F311C0E903148461FFF7E2F908B1FEF76B
:101D500005FB4FF48050079007A91548FFF724FAB8
:101D600008B1FEF7FBFA1248FFF7D2FB08B1FEF705
:101D7000F5FA0B940BA90E480C94FFF78BF908B1F8
:101D8000FEF7ECFA6020CDE9000402200290002268
:101D9000694604940648FFF758FB08B1FEF7DEFADF
:101DA0000348FFF721FB0EB010BD00000004004007
:101DB0004C01002010B50E4C0C480C2120604FF453
:101DC000E13060600020A060E060C4E90401A0612F
:101DD000E0612046FFF7BAFD08B1FEF7BFFA2068C0
:101DE000C16841F01001C16010BD00000038014021
:101DF00094010020FEE7FEE770477047FEF728BE1B
:101E000030B58FB028216846FEF722FA14210AA8BF
:101E1000FEF71EFA01210804CDE900100024029407
:101E200002250491CDE907504FF4E010099068466F
:101E3000FEF78AFF08B172B6FEE70F20CDE90A056A
:101E40004FF48060CDE90C4002210AA80E94FEF701
:101E50008FFE002801D072B6FEE70FB030BD70478C
:101E60000148FFF70DBA00004C010020F0B50268F0
:101E70001C4B1D4D1D4E1E4F1E4C4FF0804C98426A
:101E800009D0A04207D0604505D0A84203D0B04297
:101E900001D0B84204D122F0700E4A6842EA0E0224
:101EA000984209D0A04207D0604505D0A84203D08F
:101EB000B04201D0B84203D122F44075CA682A4327
:101EC0004D6922F080022A4302608A68C2620A6871
:101ED0008262984201D0A04201D1096901630121C7
:101EE0004161F0BD002C01400004004000080040AA
:101EF000000C00400034014010B501F01F03012127
:101F0000046A99408C430462016A9A401143016259
:101F100010BD10B5846842EA032224F47F440A43CA
:101F20002243826010BD826822F070020A4342F0B0
:101F30000701816070470000F0B5026A22F00102DB
:101F40000262036A42688469124E24F073050C68C9
:101F50002C4323F002058B682B430D4DA84201D082
:101F6000B04205D123F00807CB683B4323F00403BC
:101F7000A84201D0B04205D14D6922F44072154308
:101F80008A692A4342608461496841630362F0BD03
:101F9000002C014000340140F0B5026A22F010022A
:101FA0000262026A436884690D6824F4E64444EAE4
:101FB00005248D6822F0200242EA05120F4D104ED2
:101FC000A84201D0B04206D1CF6822F0800242EA96
:101FD000071222F04002A84201D0B04207D14D6959
:101FE00023F4406343EA85038D6943EA8503436034
:101FF0008461496881630262F0BD0000002C0140E9
:1020000000340140F0B5026A22F480720262026A72
:102010004368C46922F4007224F073050C68124E00
:102020002C438D6842EA05220E4DA84201D0B042F1
:1020300006D1CF6822F4006242EA072222F48062CD
:10204000A84201D0B04207D14D6923F4405343EA7E
:1020500005138D6943EA05134360C4614968C16390
:102060000262F0BD002C01400034014030B5026A2C
:1020700022F480520262046A4268C3690D6823F444
:10208000E64343EA05238D6824F4005444EA05340A
:10209000084DA84202D0084DA84204D14D6922F44F
:1020A000804242EA85124260C36149680164046269
:1020B00030BD0000002C01400034014010B5036A1F
:1020C000046A24F001040462846924F0F00444EA00
:1020D000021423F00A020A438461026210BD10B5A3
:1020E000036A23F0100303628369046A23F47043D4
:1020F00043EA023224F0A00343EA01118261016243
:1021000010BD10B5406A0021C185C184FFF716FBE0
:1021100010BD70B5446A2068406994F83D10C0F362
:10212000C0100025212904D118B1E584204600F013
:1021300083F82068406994F83E10C0F3801022298B
:1021400004D118B1E585204600F05EF8206C40F01F
:10215000100020642046FFF7F1FA70BD10B501466B
:10216000406A0968096889061BD40021C185016895
:10217000CA6822F48072CA6001684A6922F00102CA
:102180004A6101684A6922F040024A61202180F8D0
:102190003E10016B012904D10168CA6822F01002C7
:1021A000CA60016B012902D0FFF79AFC10BD818D36
:1021B000FFF746FA10BD10B5406A016B012902D045
:1021C000FFF78FFC10BD818D4908FFF739FA10BD6C
:1021D00010B50146406A0968096889060CD40021D7
:1021E000C18401684A6922F080024A610068C168BE
:1021F00041F04001C16010BDFFF70EFD10BD10B5EC
:10220000406AFFF70AFD10BD0168CA6822F49072A7
:10221000CA6001684A6922F001024A61016B012922
:1022200004D10168CA6822F01002CA60202180F837
:102230003E100021016370470168CA6822F0C002A5
:10224000CA60202180F83D10704708B590F83E1014
:10225000222901D0022008BD82684FF480539A429F
:1022600001D1016921B1816A9A421BD04AB10AE0C9
:102270000268816A5268C2F308020A80816A891C76
:1022800008E0026972B10268526802F07F020A70C7
:10229000816A491C8162C18D491E0904090CC185EE
:1022A00003D019E002685268F1E70168CA6822F0B9
:1022B0002002CA600168CA6822F48072CA6001689C
:1022C0004A6922F001024A61202180F83E10016B28
:1022D000012903D0FFF704FC002008BD00210163A1
:1022E0000168CA6822F01002CA6001680A68D20652
:1022F00002D50A6849680091818DFFF7A1F9EBE7E3
:1023000070B5044600680169E26821F44051114348
:1023100001612169A0680843616908432168CA68AE
:1023200041F20C639A430243CA6020684169A26982
:1023300021F44071114341611E492068884202D155
:10234000FEF7BCFC01E0FEF7A9FC00EBC00101EBCD
:102350000012606864218000B2FBF0F3B3FBF1F37C
:102360006FF018067343B2FBF0F5B2FBF0F605EB25
:102370008305322303EB0515B5FBF1F5B6FBF1F64A
:1023800005F0F00505EB0615B2FBF0F6B2FBF0F038
:10239000B0FBF1F06FF01802504306EB800003EB46
:1023A0000010B0FBF1F0216800F00F0028448860B5
:1023B00070BD00000038014038B58162828500257B
:1023C000134604460564222084F83E00A26B13489D
:1023D0009062A26B1248D062A26B12481063A06B8D
:1023E0000A4645632168A06B091DFEF7D7F92068EE
:1023F00001684168009184F83C50C16841F48071E3
:10240000C1602068416941F0010141612068416972
:1024100041F040014161002038BD00005D2100080D
:10242000B72100081321000881628285C28500213E
:102430000164222280F83E2080F83C100168CA68BE
:1024400042F48072CA6001684A6942F001024A613E
:102450000068C16841F02001C160002070472DE98B
:10246000F041984617460E460446069D1DE0681C3E
:102470001BD02DB1FEF7E6FAA0EB0800A84214D954
:102480002068C16821F4D071C1602068416921F0E1
:1024900001014161202084F83D0084F83E000020C5
:1024A00084F83C000320BDE8F0812068006836EA2B
:1024B000000004D00020B842D9D00020F3E701206A
:1024C000F9E7000010B50448FFF73AF9BDE81040FD
:1024D000014800F035B800009401002070B515489F
:1024E000FFF7CAF813480021443080F82110114941
:1024F000006891F82C1040684FF40075081AC4B2B7
:102500002B461B220C490B48FFF7ECFA2B462246C0
:102510000A490848FFF7E6FA21460848FDF776FE23
:102520000448FFF7DCF8BDE87040FF22034901488A
:10253000FFF7ACBA940100201E0000204C000020E0
:10254000084982B088420BD108680168C943C906AE
:1025500006D4016840680090024802B0FFF7BEBF91
:1025600002B0704794010020FEE70907090E002819
:1025700004DB00F1E02080F80014704700F00F0049
:1025800000F1E02080F8141D70470000FEF768FAA3
:10259000FFF736FCFFF762FBFFF742FBFFF70AFC91
:1025A000FFF7BAFB162213491348FFF7F5FA00218B
:1025B0001248FEF7DDFF0F4C00260127104D083CA6
:1025C0004FF4FA78FF220F490B48FFF75FFA2078A3
:1025D0000028608801D0401C00E0401E608080B26E
:1025E000C82800D9267000B9277028604046FEF739
:1025F0000DF9E7E708000020940100204C010020BD
:10260000340400404C0000200000000000000000E6
:102610000102030406070809000000000102030488
:1026200040260008000000204C0000006C0100085B
:102630008C2600084C000020740800008801000867
:102640000100000000000000626567696E20746F81
:102650002065786368616E676521200D0A00492056
:102660007265636569766520796F7572206D617337
:10267000736167653A200D0A000000000100000048
:0C26800010000000000000000024F40026
:0400000508000131BD
:00000001FF
